:100000000219EB02001290FE817403F0021EF2C28C
:10001000AF223202002290FE817406F0021EF2D25C
:10002000AF2232021C67E025E04401FF90FE86EF1C
:10003000F090FE817402F0021EF232021AF53232A2
:0C00430002005EAB07E4FD7F78021BB6F4
:0300530002003A6E
:10005B0002003EC0E0C083C082E59A30E108539AAB
:10006B00FD90029AE4F0E59A30E003539AFED082B9
:05007B00D083D0E0324B
:0300830002003F39
:03008B00021FA0B1
:10009300021FC2020457E86480F8E933E8336011B1
:1000A3000460F0ED33EC337009E8FCE9FDEAFEEBA4
:1000B300FF220460DED3EB9FEA9EE99DE8C2E78C52
:1000C300F0C2F795F0400CE8CCF8E9CDF9EACEFAA6
:1000D300EBCFFB12042285D0F05804700320D5B374
:1000E300E80470075002B2D502046192D5EC0460B3
:1000F300F7E4CCC0E0C398F8603B94186008400D67
:10010300D0E0FB020439E4FBFAC9FC8028E830E4C0
:1001130006E4C9FBE4CAFCE830E305E4C9CACBFC46
:10012300E854076010F8C3E913F9EA13FAEB13FB79
:10013300EC13FCD8F130F52FC3E49CFCEF9BFFEEEE
:100143009AFEED99FDD0E0FBEF4E4D4C701222DB91
:100153000302045EEC2CFCEF33FFEE33FEED33FDC4
:10016300ED30E7EB020439EF2BFFEE3AFEED39FDFC
:10017300D0E0FB50130BBB0003020461ED13FDEE53
:1001830013FEEF13FFEC13FC020439EC4D6011E88E
:10019300497017ED33EC3304600DE4FCFFFEFD22E0
:1001A300E933E8330470F802045712042258046058
:1001B30009E4CC2481500628500902046128400335
:1001C30002045EC0E0EB4A7044B98006D0E0FB0253
:1001D300044DEF4E701CBD8008EBFFEAFEE9FD8085
:1001E300EBE98DF0A4FEE5F0020277E9CDF9EAFE32
:1001F300EBFFEF89F0A4FCE5F0CE89F0A42EFFE439
:1002030035F0CD89F0A42DFEE435F08067EF4E7014
:1002130005BD80D780C3EF8BF0A4ACF0EE8BF0A4C8
:100223002CFCE435F0F8EF8AF0A42CE5F038FCE47C
:1002330033CB8DF0A42CFCE5F03BF8EE8AF0A42C34
:10024300FCE5F038F8E433CF89F0A42CFCE5F03872
:10025300CF3400CE89F0A42FFFE5F03EFEE433C98E
:100263008DF0A42EFEE5F039CD8AF0A42FFFE5F042
:100273003EFEE43DFD33D0E0FB50070BBB000F0215
:100283000461EC2CFCEF33FFEE33FEED33FD02048F
:1002930039020461EC5D046005E85904700302044B
:1002A30057120422580460F6EC4860F2EC7004FD27
:1002B300FEFF22C860DB2481C85009C39860025046
:1002C3000602045E9850CAF582E9294B4A7005ABD1
:1002D3008202044D75F0007C1A7880C3EF9BEE9A7E
:1002E300ED99400DC3EF9BFFEE9AFEED99FDE842B9
:1002F300F0DC23ACF0D0E0FFD0E0FED0E0FDAB8239
:1003030020E7101BEB60BAEC2CFCEF33FFEE33FE5F
:10031300ED33FD020439E803F830E705C0F075F06A
:1003230000EF2FFFEE33FEED33FD40B830E7C28020
:10033300AA74F8CC6480CCC86480C8F58204604F8A
:10034300C3EB9FF5F0EA9E42F0E99D42F0E89C453D
:10035300F0603C501DE5825FFFE582D313CB5BCB9E
:10036300F42B5582FB50280ABA002409B90020084F
:10037300801DE5825BFBE582D313CF5FCFF4C3130C
:100383002F5582FF50090EBE00050DBD00010CC3A1
:10039300EB9FF5F0EA9E42F0E99D42F0E89C45F0C0
:1003A3006007CC4820E701B3EC2275F020800E757E
:1003B300F010800575F0087D007E007F003392D534
:1003C30030D5031209CEEC334010EF33FFEE33FE8A
:1003D300ED33FDEC33FCD5F0ED22E5F0247EA2D520
:1003E30013CC92E7CDCEFF22EDD2E7CD33EC33929F
:1003F300D524814006E4FFFEFDFC22FCE4CFCECDF4
:10040300CC24E0501174FF80EDC3CC13CCCD13CDBD
:10041300CE13CECF13CF0470F030D5DE0209CEE970
:10042300D2E7C933E833F892D5EDD2E7CD33EC33D5
:10043300FC5002B2D522EC30E7100FBF000C0EBE09
:1004430000080DBD00040BEB6014A2D5EB13FCED0B
:1004530092E7FD2274FFFCFDFEFF22E480F8A2D5A3
:1004630074FF13FC7D80E480EFF920E73624F95014
:10047300037907E4F42402FBE582158270021583F5
:10048300DBF6E024FB501BE96014E4F0E5821582FF
:1004930070021583E004F0B40A08E4F0D9EE7401A5
:1004A300F00A22C2D522ED33EC3392D5FA602AB496
:1004B300FF33EDC2E77BFF60067A0479CEE4227A4C
:1004C3000479D720D5047A0479D2224E614E002BC9
:1004D300494E46002D494E4600E47A08F0A3DAFC63
:1004E3007B00740722C083C082ECC0E0EDC0E0EE65
:1004F300C0E0EFC0E0EA75F010A4CAABF075F04DB0
:10050300A42BFBE435F0FCEA2410FAEB34C5FBEC36
:1005130034D9FCEDC2E7FF75F056A4F42411C5F0FD
:10052300F434C58FF0A42AE5F03BE43CF020E71453
:100533001205DED0E0FFD0E0FED0E0FDD0E0FC12FB
:1005430002978014F4041205DED0E0FFD0E0FED061
:10055300E0FDD0E0FC12018ED082D083E0FAEDD230
:10056300E7CD33EC332482FBE4C3CF33CFCE33CE9A
:10057300CD33CD33DBF37B0775F00A846004F0A33E
:100583001B0AE5F0F0A38FF0740AA4FFACF08EF021
:10059300740AA42CFEACF050010C8DF0740AA42C48
:1005A300FDE435F0F0A3DBDE7407223F8000004159
:1005B30020000042C80000447A0000461C40004767
:1005C300C35000497424004B1896804CBEBC205A7B
:1005D3000E1BCA6753C21C749DC5AEFB600654074D
:1005E300601C232312060CEB543860091205F81221
:1005F300060712018EECF8EDF9EEFAEFCB22EB12BF
:10060300060780F1543803241C9005AEFE93FC0EBC
:10061300EE93FD0EEE930ECE93FF22E709F608DF6D
:10062300FA8046E709F208DFFA803E88828C83E786
:1006330009F0A3DFFA8032E309F608DFFA8078E3F2
:1006430009F208DFFA807088828C83E309F0A3DF64
:10065300FA806489828A83E0A3F608DFFA805889E6
:10066300828A83E0A3F208DFFA804C80D280FA808A
:10067300C680D4806980F28033801080A680EA80AF
:100683009A80A880DA80E280CA803389828A83ECE8
:10069300FAE493A3C8C582C8CCC583CCF0A3C8C56C
:1006A30082C8CCC583CCDFE9DEE7800D89828A83EB
:1006B300E493A3F608DFF9ECFAA9F0EDFB228982B3
:1006C3008A83ECFAE0A3C8C582C8CCC583CCF0A367
:1006D300C8C582C8CCC583CCDFEADEE880DB89826B
:1006E3008A83E493A3F208DFF980CC88F0EF6001FA
:1006F3000E4E60C388F0ED2402B4040050B9F582B5
:10070300EB2402B4040050AF232345822390066EEA
:1007130073C2D530F707B2D563F0FF05F030E70CAD
:10072300B2D5F4048463F0FF05F080018430D50270
:10073300F40422BB010689828A83E0225002E72265
:10074300BBFE02E32289828A83E49322BB010CE588
:100753008229F582E5833AF583E0225006E9258272
:10076300F8E622BBFE06E92582F8E222E58229F5B6
:1007730082E5833AF583E49322BB010689828A8367
:10078300F0225002F722BBFE01F322F8BB010DE574
:100793008229F582E5833AF583E8F0225006E925BC
:1007A30082C8F622BBFE05E92582C8F222EF8DF04E
:1007B300A4A8F0CF8CF0A428CE8DF0A42EFE22BCEA
:1007C300000BBE0029EF8DF084FFADF022E4CCF8DE
:1007D30075F008EF2FFFEE33FEEC33FCEE9DEC9843
:1007E3004005FCEE9DFE0FD5F0E9E4CEFD22EDF8C9
:1007F300F5F0EE8420D21CFEADF075F008EF2FFF6C
:10080300ED33FD4007985006D5F0F222C398FD0F53
:10081300D5F0EA22C2D5EC30E709B2D5E4C39DFD99
:10082300E49CFCEE30E715B2D5E4C39FFFE49EFEE3
:100833001207C2C3E49DFDE49CFC80031207C2308F
:10084300D507C3E49FFFE49EFE22C5F0F8A3E0288A
:10085300F0C5F0F8E582158270021583E038F022C6
:10086300A3F8E0C5F025F0F0E58215827002158348
:10087300E0C838F0E822BB0110E58229F582E58360
:100883003AF583E0F5F0A3E0225009E92582F886E2
:10089300F008E622BBFE0AE92582F8E2F5F008E259
:1008A30022E5832AF583E993F5F0A3E99322E88F00
:1008B300F0A4CC8BF0A42CFCE98EF0A42CFC8AF0E1
:1008C300EDA42CFCEA8EF0A4CDA8F08BF0A42DCCE3
:1008D3003825F0FDE98FF0A42CCD35F0FCEB8EF03C
:1008E300A4FEA9F0EB8FF0A4CFC5F02ECD39FEE422
:1008F3003CFCEAA42DCE35F0FDE43CFC2275F00867
:10090300758200EF2FFFEE33FECD33CDCC33CCC554
:100913008233C5829BED9AEC99E58298400CF5826F
:10092300EE9BFEED9AFDEC99FC0FD5F0D6E4CEFBE1
:10093300E4CDFAE4CCF9A88222B800C1B90059BACF
:10094300002DEC8BF084CFCECDFCE5F0CBF97818FD
:10095300EF2FFFEE33FEED33FDEC33FCEB33FB10F7
:10096300D703994004EB99FB0FD8E5E4F9FA227811
:1009730018EF2FFFEE33FEED33FDEC33FCC933C923
:1009830010D7059BE99A4007EC9BFCE99AF90FD82D
:10099300E0E4C9FAE4CCFB2275F010EF2FFFEE334D
:1009A300FEED33FDCC33CCC833C810D7079BEC9A8C
:1009B300E899400AED9BFDEC9AFCE899F80FD5F015
:1009C300DAE4CDFBE4CCFAE4C8F922C3E49FFFE404
:1009D3009EFEE49DFDE49CFC22EB9FF5F0EA9E4223
:1009E300F0E99D42F0EC6480C864809845F022EB06
:1009F3009FF5F0EA9E42F0E99D42F0E89C45F02223
:100A0300E8600FECC313FCED13FDEE13FEEF13FFD1
:100A1300D8F122BB010789828A83020AE55005E9DE
:100A2300F8020AD9BBFE05E9F8020AF189828A8332
:100A3300020AFDECF0A3EDF0A3EEF0A3EFF022A881
:100A4300828583F0D083D082120A59120A59120A7E
:100A530059120A59E473E493A3C583C5F0C583C847
:100A6300C582C8F0A3C583C5F0C583C8C582C822A3
:100A7300F8E0FBA3A3E0F925F0F0E582158270020C
:100A83001583E0FA38F022EBF0A3EAF0A3E9F022B1
:100A9300BB010789828A83020B165005E9F8020B12
:100AA3000DBBFE05E9F8020B1F89828A83020B281E
:100AB300D083D082F8E4937012740193700DA3A3D2
:100AC30093F8740193F5828883E4737402936860E6
:100AD300EFA3A3A380DFE6FC08E6FD08E6FE08E635
:100AE300FF22E0FCA3E0FDA3E0FEA3E0FF22E2FC83
:100AF30008E2FD08E2FE08E2FF22E493FC7401939E
:100B0300FD740293FE740393FF22E6FB08E6FA08E2
:100B1300E6F922E0FBA3E0FAA3E0F922E2FB08E214
:100B2300FA08E2F922E493FB740193FA740293F94D
:100B330022E508243DF582E43401F583E00508222B
:100B430090013A30070390013DE475F001120A73F6
:100B53000207362000E97F2ED2008018EF540F24BD
:100B630090D43440D4FF30040BEF24BFB41A0050A8
:100B7300032461FFE50960021509050CE50C700209
:100B8300050B30070E90013AE475F001120A73EF7A
:100B930002077C02203F7403D2078003E4C207F5F7
:100BA3000890013A120A8AE4F509F50BF50CE509F8
:100BB30060077F20120B7780F5750AFFC201C20020
:100BC300C202C203C205C206C208120B43FF700D64
:100BD3003007057F00120B88AF0CAE0B22B4255FE4
:100BE300C2D5C204120B43FF24D0B40A00501A75B5
:100BF300F00A780930D50508B6FF0106C6A426F623
:100C030020D5047002D20380D924CFB41A00EF5048
:100C130004C2E5D204020E7AD20180C6D20080C09B
:100C2300D20280BCD2D580BAD20580B47F20120B09
:100C3300772002077401B5090040F1120B34FF124B
:100C43000B77020BB1D208D2068095120B34FB123C
:100C53000B34FA120B34F94A4B700679787A0F7B0E
:100C6300FF20022EE509602A7E008E827583001222
:100C7300074F60060EEE650A70F0C2D5EBC0E0EADE
:100C8300C0E0E9C0E0EE120EDBD0E0F9D0E0FAD02C
:100C9300E0FB120736FF60AAEBC0E0EAC0E0E9C060
:100CA300E0120B77D0E02401F9D0E03400FAD0E071
:100CB300FBE50A0460DCD50AD98087D20280A21240
:100CC3000EBD60F7E50A70010412046CA90A600DF9
:100CD300E50A600914F50A120F65EF60F3EA30E7DD
:100CE30002F404C3995079EAF4250A0430E701E4D5
:100CF30004F50A800D120EBD60C1EA050A250A1229
:100D0300046CEA900169F030E701E4250A04D50A8E
:100D13000420050114120EDBE4C0E0120F659001FC
:100D230069E0601320E70714F0120B5F802204F0E0
:100D3300D0E014C0E07F00120B5FE50A6007120BDE
:100D430056150A800B300503120B56D0E0020BB187
:100D5300D0E00480C4120EBD609EE50A0412046C48
:100D6300900169EAF0E50A200502600104240412F7
:100D73000EDB74FF04C0E0120F65120B5FE50A205F
:100D830005026003120B56D0E0B50AE87F45120B4B
:100D930069900169E07F2B30E7047F2DF404C0E004
:100DA300120B77D0E075F00A84C0F0120B60D0E02C
:100DB300120B60020BB1791080027908C206C208D7
:100DC3008008D2D5790A8004790AC2D5E50A04706D
:100DD30002F50AE4FAFDFEFF120B34FC7B08200146
:100DE30013120B34FD7B1030000A120B34FE120B6E
:100DF30034FF7B20EC3382D592D55013C3E430000B
:100E0300069FFFE49EFEE42001039DFDE49CFCE4B9
:100E1300CBF8C201EC700CCFCECDCCE824F8F8703F
:100E2300F38017C3EF33FFEE33FEED33FDEC33FCFA
:100E3300EB33FB994002FB0FD8E9EB300105F8D007
:100E4300E0C448B201C0E00AEC4D4E4F78207B006D
:100E530070C2EAB50A0040BCC0E0120EDDD0F0D08B
:100E6300E0200104C4C0E0C4B201C0F0120B60D0A2
:100E7300F0D5F0EB020BB1120AB30C4E530DB95877
:100E83000C1F4C0C1B420DBD4F0DC5440DC5490C29
:100E930034430DCB550CF8460D58450CC2470F98FB
:100EA300500C232D0C272E0C4A2B0C2B230C4820E3
:100EB3000F812A0BE34800000C42E50AB4FF0375D7
:100EC3000A06120B34FC120B34FD120B34FE120B08
:100ED30034FF9001620204A9790AA2D520031430D9
:100EE3000509B910020404B9080104A2D5200602B9
:100EF3005001042002689202B509005034C0E07F1B
:100F0300203003197F30A20272067205500F120FB0
:100F130034C202C206C205C2087F30800F30050307
:100F2300E9C0E0120B77300503D0E0F9D0E0B50952
:100F3300CC3005177F30B9100C120B777F58300473
:100F4300077F788003B90803120B773002057F2DE2
:100F5300020B777F202008F87F2B2006F3229202D2
:100F630080CF7F00B40700500B2462F582E4340184
:100F7300F583E0FF22286E756C6C2900D201120BF9
:100F8300343001F8C201780930D50108F6020BE3C9
:100F93002D50434958120B342403B405004001E497
:100FA300900F9393120B68743A120B68D20375096E
:100FB30004020DB9900134EEF0A3EFF0A3ECF0A31B
:100FC300EDF0A3EBF0E490013CF0A3F0A3F090016B
:100FD30039E0FBA3E0FAA3E0F9A3E0FEA3E0F58286
:100FE3008E8312074FFFFD3395E0FCD3ED9400ECA5
:100FF30064809480500302142190013EEFF090012D
:1010030038E01470030211061470030211EE147019
:10101300030212FB24F96019147003021106147001
:10102300030211EE1470030212FB240D600302137A
:10103300FF90013EE0FFC3948074809480400302DC
:1010430013FFEF75F006A424CBF9741F35F0FA7B78
:10105300FF783F7C017D017E007F061206EE900142
:1010630038E0FF3395E0FEEF640A4E70409001BF15
:10107300F0A3F09001BFE0FEA3E0FF243FF58274EC
:10108300013EF583E0F4FD743F2FF58274013EF5D4
:1010930083EDF09001C0E004F070069001BFE0041E
:1010A300F09001BFE07004A3E0640670C6900134C1
:1010B300E0FEA3E0FFA3E0FCA3E0FD121D697B01BA
:1010C3007A01793F9001C5E4F07406121F83900101
:1010D30035E02406F0900134E03400F0D3A3E0942B
:1010E3007A900134E06480948050030213FFE4F0AB
:1010F300A3F0900137E004F07006900136E004F0AD
:101103000213FF90013EE0C39480748094804003F7
:101113000211C1E024E0F0E075F010A424B3F974E7
:101123002235F0FA7BFF783F7C017D017E007F1042
:101133001206EE900138E0FF3395E0FEEF640B4EAC
:1011430070409001BFF0A3F09001BFE0FEA3E0FF69
:10115300243FF58274013EF583E0F4FD743F2FF5DF
:101163008274013EF583EDF09001C0E004F0700657
:101173009001BFE004F09001BFE07004A3E06410AD
:1011830070C6900134E0FEA3E0FFA3E0FCA3E0FD02
:10119300121D697B017A01793F9001C5E4F0A374C4
:1011A30008F07F40121F87121D537B017A01794794
:1011B3009001C5E4F0A37408F07F40121F879001EB
:1011C30035E02408F0900134E03400F0D3A3E09438
:1011D30078900134E06480948050030213FFE4F0BC
:1011E300A3F0900137E024020213F790013EE0C31D
:1011F30094807480948040030212CEE024E0F0E0F7
:1012030075F024A424A3F9742835F0FA7BFF783F02
:101213007C017D017E007F241206EE900138E0FF01
:101223003395E0FEEF640C4E70409001BFF0A3F0E5
:101233009001BFE0FEA3E0FF243FF58274013EF579
:1012430083E0F4FD743F2FF58274013EF583EDF0E6
:101253009001C0E004F070069001BFE004F090013B
:10126300BFE07004A3E0642470C6900134E0FEA3E1
:10127300E0FFA3E0FCA3E0FD121D697B017A017985
:101283003F9001C5E4F0A3740CF07F40121F871256
:101293001D537B017A01794B9001C5E4F0A3740CD3
:1012A300F07F40121F87900134E0FEA3E0FF90011E
:1012B30037E02402121D617B017A0179579001C541
:1012C300E4F0A3740CF07F40121F87900135E024F3
:1012D3000CF0900134E03400F0D3A3E09474900157
:1012E30034E06480948050030213FFE4F0A3F09091
:1012F3000137E024030213F790013EE0C3948074A6
:1013030080948040030213D0E024E0F0E075F040C5
:10131300A424FFF9743535F0FA7BFF783F7C017D17
:10132300017E007F401206EE900138E0FF3395E026
:10133300FEEF640D4E70409001BFF0A3F09001BF2B
:10134300E0FEA3E0FF243FF58274013EF583E0F461
:10135300FD743F2FF58274013EF583EDF09001C0DB
:10136300E004F070069001BFE004F09001BFE0706C
:1013730004A3E0644070C6900134E0FEA3E0FFA341
:10138300E0FCA3E0FD121D697A01793F121F7A1276
:101393001D537A01794F121F7A900134E0FEA3E0C6
:1013A300FF900137E02402121D617B017A01795F0E
:1013B300121F7C900134E0FEA3E0FF900137E0248C
:1013C30003121D617B017A01796F121F7C90013535
:1013D300E02410F0900134E03400F0D3A3E09470E3
:1013E300900134E0648094804012E4F0A3F0900113
:1013F30037E02404F0900136E03400F0D390013755
:10140300E09407900136E064809480501190013D90
:10141300E004F0700690013CE004F0020FD1224397
:10142300BA80E59D603178FAE6FBAF9FC3EF9BFF7F
:10143300E49400FEE49400FDE49400FC7BE07A284D
:10144300790178001208B1E42FFFEE3451FEED3438
:1014530025FDEC3402802E78FBE6FBAF9FC3EF9BA8
:10146300FFE49400FEE49400FDE49400FCE47B803C
:101473007ABBF9F81208B1E42FFFEE3436FEED34EF
:101483006EFDEC3401FC900101120A36900101E07B
:10149300FCA3E0FDA3E0FEA3E0FFC00790FE01E094
:1014A300FBE4FAF9F8D00712093C900101120A365D
:1014B3007FC07EF67D577C00900101E0F8A3E0F940
:1014C300A3E0FAA3E0FBC31209F250097F007E6098
:1014D3007D547C00227FC07E267D827C00900101AA
:1014E300E0F8A3E0F9A3E0FAA3E0FBC31209F2508A
:1014F300097F807E8D7D5B7C00227F807EED7DAFCA
:101503007C00900101E0F8A3E0F9A3E0FAA3E0FB7B
:10151300C31209F250097F007EC07DA87C00227FA0
:10152300807E2D7DE87C00900101E0F8A3E0F9A323
:10153300E0FAA3E0FBC31209F250097F007E1B7D92
:10154300B77C00227F807E367D257C01900101E0FF
:10155300F8A3E0F9A3E0FAA3E0FBC31209F25009F0
:101563007F007E407D197C01227F807E567D417CF9
:1015730001900101E0F8A3E0F9A3E0FAA3E0FBC3C3
:101583001209F250097F007E2D7D317C01227F00FC
:101593007EDB7D5F7C01900101E0F8A3E0F9A3E02D
:1015A300FAA3E0FBC31209F250097F007E807D514C
:1015B3007C01227F607E197D857C01900101E0F82A
:1015C300A3E0F9A3E0FAA3E0FBC31209F250097FF9
:1015D300007E367D6E7C01227F207EE07DB27C0121
:1015E300900101E0F8A3E0F9A3E0FAA3E0FBC31242
:1015F30009F250097FC07EFC7D9B7C01227FE07E47
:10160300A67DE07C01900101E0F8A3E0F9A3E0FAF4
:10161300A3E0FBC31209F250097F807EC37DC97C1E
:1016230001227F607E2B7DFF7C01900101E0F8A306
:10163300E0F9A3E0FAA3E0FBC31209F250097F002B
:101643007E407DFA7C01227FC07E0E7D167C0222C5
:10165300900105EFF0A3EDF0A3EBF0A3E0F8A3E016
:10166300F9A3E0FAA3E0FB900393E0FCA3E0FDA35E
:10167300E0FEA3E0FF12093CE47B04FAF9F8120947
:101683003CC3E49FFFE49EAD07FC900105E01470AA
:101693000302172C14700302176F1470030217C888
:1016A3002403600302182590010CE0FB7A00640117
:1016B30070144398508D8BECF58D438E40D28EE49D
:1016C300900299F08011EB64024A700B4398508D9D
:1016D300D7ECF5D6438E1553A23F900106E0F9FFF0
:1016E3007E007008A3E0640170028035EF64024E4F
:1016F300700D900107E06403700543A2408022E966
:101703006404700D900107E06405700543A28080B6
:1017130010E96406700B900107E06407700343A2AD
:10172300C0E4900299F0D2AC2290010CE064027004
:101733000B439A108DD7ECF5D6438E1453BAFE9013
:101743000106E0FF7E0064087008A3E064097002EC
:101753008011EF640A4E700B900107E0640B700375
:1017630043BA0143AF01E490029AF02290010CE0E6
:10177300FB7A006402700D43AC108DD7ECF5D643B1
:101783008E148011EB64034A700B43AC508DD5EC7F
:10179300F5D443D10A53BAFD900106E0FF7E0064FD
:1017A3000C7008A3E0640D70028011EF640E4E709C
:1017B3000B900107E0640F700343BA0243AF08E4E0
:1017C30090029BF02290010CE0FB7A006402700D02
:1017D3004384108DD7ECF5D6438E148011EB64044B
:1017E3004A700B4384508DD3ECF5D243D1A053BA46
:1017F300FB900106E0FF7E0064107008A3E0641113
:1018030070028016EF64124E7010900107E06413AB
:101813007008F5CA75C90443BA0443AF10E49002D3
:101823009CF0227FC87E001220187FAE1200467FF4
:10183300021200467F101200467F401200467FB01E
:101843001200467F811200467FFF1200467FA112DD
:1018530000467FA61200467FA81200467F3F120073
:10186300467FC81200467FD3120046E4FF120046AB
:101873007FD51200467F801200467FD81200467F34
:10188300051200467FD91200467FF11200467FDA27
:101893001200467F121200467FDB1200467F301291
:1018A30000467F8D1200467F141200467FAF120060
:1018B30046121E6D7F2C7E01122018121B5B7FC8FF
:1018C3007E0012201890010674FFF0A37420F0A389
:1018D3007459F0E4FBFDFCFFFE121A7790010674C5
:1018E300FFF0A37420F0A3746DF07B017D027C00F4
:1018F300E4FFFE121A7790010674FFF0A37420F040
:10190300A3747FF0A3E4F0A3740CF0A3E4F0A37436
:1019130018F07B027D047C00E4FFFE121A7790012D
:101923000674FFF0A37420F0A37485F07B037D0499
:101933007C007F407E00021A77440393000000007E
:1019430042039B00004603650000000000004603BD
:101953005F0000000000006082029D0000000000A4
:101963000000000000000000000000000000000074
:101973000000000000000000000000000000000064
:101983000000000000000000000000000000000054
:101993000000000000000000000000000000000044
:1019A3000000000000000000000000000000000034
:1019B3000000000000000000000000000000000024
:1019C3000000000000000000000000000000000014
:1019D3000000000000000000000000000042039926
:1019E3000013420397000000787FE4F6D8FD758169
:1019F30039021A32021C10E493A3F8E493A34003C0
:101A0300F68001F208DFF48029E493A3F854072455
:101A13000CC8C333C4540F4420C8834004F4568015
:101A23000146F6DFE4800B01020408102040809099
:101A3300193CE47E019360BCA3FF543F30E5095495
:101A43001FFEE493A360010ECF54C025E060A840BD
:101A5300B8E493A3FAE493A3F8E493A3C8C582C8B4
:101A6300CAC583CAF0A3C8C582C8CAC583CADFE989
:101A7300DEE780BE900101EEF0A3EFF0A3ECF0A34C
:101A8300EDF0A3EBF09001317401F0A37401F0A326
:101A93007409F0900106E0F9A3E0FAA3E0900134A1
:101AA300C9F0A3EAF0A3E9F0900131E0F9A3E0FA69
:101AB300A3E0900137C9F0A3EAF0A3E9F07B007A31
:101AC300007922121D09900131E4F0A3F0A3F090F4
:101AD3000101E0FEA3E0FFA3E0FCA3E0FD900139D8
:101AE300E4F0A37400F0A37422F0900105E0FB027C
:101AF3000FB7C0E0C083C082C0D075D000C006C09D
:101B03000730D822C2D8900365E0FEA3E0F5EAEEE1
:101B1300F5FA90035FE0FEA3E0FF900366E02FF089
:101B2300900365E03EF030D922C2D9900367E0FE0E
:101B3300A3E0F5EBEEF5FB900361E0FEA3E0FF907D
:101B43000368E02FF0900367E03EF0D007D006D0A3
:101B5300D0D082D083D0E032E4900101F0A3F090A2
:101B63000101E0FCA3E0FDC39408EC648094805081
:101B730041E4FFFE121D69E4900103F0A3F0E4FFCA
:101B8300122050900104E004F07006900103E00479
:101B9300F0C3900104E09480900103E0648094809A
:101BA30040DC900102E004F070B5900101E004F024
:101BB30080AD229001C3EFF0A90512200FEF60035F
:101BC3007F01229001C3E0FF12002CEF60037F012D
:101BD30022120006EF60037F0122AF0112002CEFF7
:101BE30060037F0122120006EF60037F0122AF032F
:101BF30012002CEF60037F0122120006EF60037FC7
:101C03000122120016EF7F0060027F012212000FF3
:101C1300121EB012001F121F29900108120A42005F
:101C230001C20090010C7402F07B01E4FDFF121667
:101C330053900104120A42000000E87B317D307F9B
:101C430003121D9B1218267F007EC27D017C0012A9
:101C53001F527FF47E011220187BFF7A4E790F12F8
:101C63000B9F80EEC0E0C083C082C0D075D000C09F
:101C730005C007309907C299900299E4F030982A79
:101C8300C298AF99EFFD647F6005ED648070169094
:101C9300039DE0FF04F0D3EF941474809480400A12
:101CA30075C760800590039DE4F0D007D005D0D0C0
:101CB300D082D083D0E032AF06E0FBA3E475F0011D
:101CC300120863A9F0FA120736FDEF1460151460C9
:101CD3001D1460252403702D900299E070FA04F01E
:101CE3008D992290029AE070FA04F08D9B22900263
:101CF3009BE070FA04F08DAD2290029CE070FA0430
:101D0300F0AF058F8522900134E0FFA3E0FEA3E04E
:101D1300CF90013DF0A3EEF0A3EFF0900137E0CBBD
:101D2300F0A3E0CAF0A3E0C9F07F22900140AD82A6
:101D3300AC831207368D828C83F0A309E970010A04
:101D4300DFEC900137E0FBA3E0FAA3E0F9020B9983
:101D5300900134E0FEA3E0FF900137E02401FD9001
:101D63000136E03400FC9001C1EEF0A3EFF0ED2466
:101D7300B0FF1200467E009001C2E054F07804CE1A
:101D8300A2E713CE13D8F84410FF1200469001C106
:101D9300A3E0540FFF02004653BACF43BA80EF14B7
:101DA300600A14600C14600E2403800D43BA108083
:101DB3000843BA20800343BA3090FE80E04440F0E9
:101DC300E04480F0C083C082E0FB900104A3A3A39E
:101DD300E0FFEB4FD082D083F090FE82E4F02290BC
:101DE30001C71220019001C7E0FF12002C12000668
:101DF3009001C8E080219001CC74FFF5F0120863D4
:101E030045F0601C9001C9E0FBA3E475F0011208E2
:101E130063A9F0FA120736FF12002C12000680D6CF
:101E23001200167F0022C2D5E830E70FB2D5E4C313
:101E33009BFBE49AFAE499F9E498F8EC30E717B2DB
:101E4300D5121E5F12093CE4C39BFBE49AFAE499A2
:101E5300F9E498F8800312093C30D50DE4C39FFFE1
:101E6300E49EFEE49DFDE49CFC22E4900101F090DD
:101E73000101E0FD7C00C3940874809480502DE43C
:101E8300FFFE121D69E4900102F0900102E0C39489
:101E93008074809480500D7FFF122050900102E0E7
:101EA30004F080E6900101E004F080C322121422C2
:101EB300900393120A36E4F594F593F592F591F5B0
:101EC30096F595F5B2F5B1F5B4F5B3F5CAF5C9F5DF
:101ED300D8F5D9F5DEF58EF598F59AF5ACF584F5D8
:101EE300A2F5BAF5AFF589F5E9F5F943BA8022E42D
:101EF3009001CEF0A3F0FC90FE82E020E61E7F016D
:101F03007E0012202C9001CEE475F001120863FECE
:101F1300C3E5F0941EEE940040DD7C0190FE82E068
:101F230054BFF0AF0422E47BE07A2EF9F8900393D8
:101F3300E0FCA3E0FDA3E0FEA3E0FF12093C900355
:101F43009BEEF0A3EFF075DC48E4F5D9D2DE2290E6
:101F53000101120A36900101E0FCA3E0FDA3E0FEBB
:101F6300A3E0FF900108120A36E490010CF07B0F06
:101F73007D0E7F020216537B019001C5E4F07410BD
:101F8300A3F07F40AD079001C5E0FFA3E09001CC33
:101F9300CFF0A3EFF07F78121DE27F0022C0E0C0F4
:101FA30083C082E5AC30E10853ACFD90029BE4F0C2
:101FB300E5AC30E00353ACFED082D083D0E032C036
:101FC300E0C083C082E58430E1085384FD90029C25
:101FD300E4F0E58430E0035384FED082D083D0E084
:101FE30032AFF9EFFEADE9EDFF90039CE02FFF90D8
:101FF300039BE03E8FECF5FC30DAFDC2DA22EFF012
:10200300A3EDF0A3EBF0A3EAF0A3E9F090FE817453
:1020130001F0021EF2AB07AA06EB1BAE0270011A17
:102023004E6005121FE480F122EF1FAA0670011E05
:102033004A60087D091DED60F080FA2290016AEF85
:10204300F0FDE4FF121CCD90016AE0FF22AB077D97
:10205300407F78021BB6323032302F31322F303589
:102063002032323A30303A3030004F4C4544203839
:102073002A313620544553542020200025642A2534
:10208300640031362A3332000000000000000000F3
:10209300002F000000000700070000147F147F14C6
:1020A30000242A7F2A12006264081323003649554C
:1020B300225000000503000000001C224100000024
:1020C30041221C000014083E08140008083E0808BA
:1020D300000000A060000008080808080000606015
:1020E3000000002010080402003E5149453E000054
:1020F300427F4000004261514946002141454B3136
:10210300001814127F10002745454539003C4A4901
:102113004930000171090503003649494936000673
:102123004949291E000036360000000056360000DB
:102133000008142241000014141414140000412256
:10214300140800020151090600324959513E007C2E
:102153001211127C007F49494936003E4141412218
:10216300007F4141221C007F49494941007F090901
:102173000901003E4149497A007F0808087F0000B1
:10218300417F4100002040413F01007F081422416C
:10219300007F40404040007F020C027F007F040824
:1021A300107F003E4141413E007F09090906003E80
:1021B3004151215E007F09192946004649494931A9
:1021C3000001017F0101003F4040403F001F2040CC
:1021D300201F003F4038403F00631408146300078A
:1021E3000870080700615149454300007F414100E1
:1021F30000552A552A55000041417F000004020181
:10220300020400404040404000000102040000205E
:1022130054545478007F484444380038444444209C
:1022230000384444487F00385454541800087E0949
:1022330001020018A4A4A47C007F08040478000011
:10224300447D4000004080847D00007F10284400CE
:102253000000417F4000007C04180478007C0804DF
:10226300047800384444443800FC2424241800181B
:10227300242418FC007C0804040800485454542007
:1022830000043F444020003C4040207C001C204090
:10229300201C003C4030403C004428102844001CD3
:1022A300A0A0A07C004464544C44141414141414CB
:1022B300000000000000000000000000000000001B
:1022C300000000F8000000000000003330000000B0
:1022D30000100C06100C06000000000000000000B7
:1022E30040C07840C0784000043F04043F04040029
:1022F300007088FC08300000001820FF211E000039
:10230300F008F000E018000000211C031E211E004D
:1023130000F00888700000001E21232419272110D3
:1023230010160E0000000000000000000000000076
:10233300000000E01804020000000007182040001D
:1023430000020418E000000000402018070000000D
:10235300404080F0804040000202010F0102020071
:10236300000000F0000000000101011F0101010055
:10237300000000000000000080B0700000000000BA
:102383000000000000000000000101010101010143
:1023930000000000000000000030300000000000DA
:1023A30000000000806018040060180601000000AF
:1023B30000E010080810E000000F102020100F00AC
:1023C300001010F8000000000020203F2020000033
:1023D300007008080888700000302824222130008B
:1023E30000300888884830000018202020110E0093
:1023F3000000C02010F8000000070424243F24003C
:1024030000F80888880808000019212020110E0010
:1024130000E0108888180000000F112020110E0022
:1024230000380808C83808000000003F000000001A
:102433000070880808887000001C222121221C00DB
:1024430000E010080810E0000000312222110F0004
:10245300000000C0C0000000000000303000000099
:102463000000008000000000000080600000000009
:102473000000804020100800000102040810200022
:10248300404040404040400004040404040404006D
:102493000008102040800000002010080402010002
:1024A300007048080808F000000000303601000002
:1024B300C030C828E810E0000718272423140B00B5
:1024C3000000C038E0000000203C2302022738202F
:1024D30008F8888888700000203F202020110E0013
:1024E300C03008080808380007182020201008000A
:1024F30008F808080810E000203F202020100F00F3
:1025030008F88888E8081000203F202023201800BE
:1025130008F88888E8081000203F20000300000026
:10252300C03008080838000007182020221E0200C7
:1025330008F808000008F808203F210101213F2086
:10254300000808F8080800000020203F20200000B1
:1025530000000808F8080800C08080807F000000A1
:1025630008F888C028180800203F200126382000DA
:1025730008F8080000000000203F20202020300041
:1025830008F8F800F8F80800203F003F003F20005B
:1025930008F830C00008F808203F200007183F0063
:1025A300E01008080810E0000F10202020100F0092
:1025B30008F808080808F000203F21010101000085
:1025C300E01008080810E0000F18242438504F00CA
:1025D30008F8888888887000203F2000030C30208A
:1025E30000708808080838000038202121221C00C8
:1025F300180808F8080818000000203F2000000011
:1026030008F808000008F808001F202020201F00F9
:102613000878880000C83808000007380E01000059
:10262300F80800F80008F800033C0700073C030023
:10263300081868808068180820302C03032C302089
:102643000838C800C83808000000203F20000000F8
:1026530010080808C8380800203826212020180050
:10266300000000FE020202000000007F4040400024
:10267300000C30C000000000000000010638C0005C
:1026830000020202FE000000004040407F00000004
:102693000000040202020400000000000000000029
:1026A3000000000000000000808080808080808027
:1026B300000202040000000000000000000000000F
:1026C30000008080808000000019242222223F2005
:1026D30008F8008080000000003F112020110E0048
:1026E3000000008080800000000E112020201100D7
:1026F300000000808088F800000E112020103F2089
:102703000000808080800000001F2222222213000C
:10271300008080F0888888180020203F2020000057
:102723000000808080808000006B9494949360000C
:1027330008F8008080800000203F210000203F2017
:1027430000809898000000000020203F2020000017
:10275300000000809898000000C08080807F000007
:1027630008F8000080808000203F24022D302000E4
:10277300000808F8000000000020203F202000008F
:102783008080808080808000203F20003F20003FA9
:102793008080008080800000203F210000203F20B7
:1027A3000000808080800000001F202020201F0068
:1027B300808000808000000080FFA12020110E0097
:1027C3000000008080808000000E112020A0FF8088
:1027D300808080008080800020203F212000010035
:1027E300000080808080800000332424242419008A
:1027F300008080E0808000000000001F2020000097
:102803008080000000808000001F202020103F20D7
:10281300808080000080808000010E300806010067
:1028230080800080008080800F300C030C300F000C
:1028330000808000808080000020312E0E31200037
:10284300808080000080808080818E701806010067
:1028530000808080808080000021302C2221300085
:1028630000000000807C020200000000003F4040A6
:1028730000000000FF00000000000000FF00000057
:102883000002027C800000000040403F0000000086
:102893000006010102020404000000000000000021
:1028A3000000000000000000000000000000000025
:1028B3000000000000000000000000000000000015
:1028C300000000000000000000F0F0000000000025
:1028D3000000000000770F0000000000000000006F
:1028E300001C1C000000000000008060301C8C6095
:1028F300301C0C000000000000000000000000007D
:1029030000000000000000000000000000000000C4
:10291300F000000000F00000008383FF83838383C3
:10292300FB87830000011F01010101011F01010059
:10293300000080C06020F820E0C000000000030712
:102943000C18FF71E18100000000070F12107F10C7
:102953000F070000C0301030C00000C0300000007E
:1029630007181018CF38C6311030C0000000180700
:1029730000000718101807000000E0F010F0E00056
:1029830000000000C0E0173FF8C70308F80808007C
:10299300070F181010130F0E1910100C00008C4C99
:1029A30038000000000000000000000000000000EC
:1029B3000000000000000000000000000000000014
:1029C3000000000000008060100804000000000008
:1029D30000FE010000000000000000000000030CE6
:1029E3001020400000040810608000000000000078
:1029F300000000000001FE00000000000040201065
:102A03000C03000000000000000000000000C08074
:102A130000000000006666243810FF183C24666638
:102A230000000000000003000000000000000000A0
:102A33000000800000000000001010101010FF10B4
:102A43001010101000000000000003000000000040
:102A53000000000000000000000000000000000073
:102A6300000000000000000000008C4C3800000053
:102A73000000000000000000000000000000000053
:102A830000101010101010101010100000000000A3
:102A93000000000000000000000000000000000033
:102AA3000000000000000000000000000000000023
:102AB30000001C1C1C0000000000000000000000BF
:102AC30000000000E0380C000000000080701C03D0
:102AD300000000000060380E01000000000000004C
:102AE300000080C060202060C080000000FEFF0165
:102AF3000000000001FFFE000001070E181010186F
:102B03000E0701000000404040C0E000000000004C
:102B13000000000000FFFF00000000000000101094
:102B2300101F1F1010100000008040202020206084
:102B3300C08000000003030000C060301F070000D6
:102B430000181C1211101010101E000000C0C0202D
:102B5300202060C080000000000101001010182F29
:102B6300E7800000000E0E10101010180F07000071
:102B730000000000000080E0E000000000C0A0981A
:102B8300848380FFFF808080000000000010101FFE
:102B93001F1010000000E020202020202020000033
:102BA30000003F1008080818F0E0000000070B10B1
:102BB3001010101C0F030000000080C040202020D4
:102BC300E0C0000000FCFF211008080818F0E00036
:102BD3000001070C18101010080F03000000C0605C
:102BE3002020202020E06000000001000000E01809
:102BF3000700000000000000001F1F00000000008D
:102C03000080C0602020202060C080000083CF6C43
:102C13001810303068CF830000070F081010101011
:102C2300180F07000000C0C020202020C080000033
:102C3300001F3F604040402010FFFE0000000C1CBE
:102C4300101010080F030000000000000000000037
:102C53000000000000000000001C1C1C000000001D
:102C630000000000001C1C1C00000000000000000D
:102C7300000000000000000000000000000C0C0039
:102C8300000000000000000000D838000000000031
:102C93000000000000000080402010000000102809
:102CA3004482010000000000000000000000010257
:102CB30004081000000000000000000000000000F5
:102CC3000044444444444444444444000000000059
:102CD3000000000000000000000010204080000001
:102CE30000000000000000000000018244281000E2
:102CF30000001008040201000000000000008040F2
:102D0300402020202060C080000007060000E01063
:102D130018080F0700000000001C1C1C0000000026
:102D23000000C0E020109090A060800000FEFF0033
:102D3300F8FF03FC07807F000000070E1811111134
:102D4300090C0200000000008060E00000000000A9
:102D5300000080784740415FF0800000101C131092
:102D630000000000111F18100020E0E02020206068
:102D7300C0C000000000FFFF101010182FE78000F4
:102D830000101F1F10101010180F0700000080C044
:102D93004020202060E0800000FCFF0100000000D4
:102DA300000003000001070E18101010080C0300A8
:102DB3002020E0E020202040C08000000000FFFF32
:102DC3000000000001FFFE0010101F1F101010086C
:102DD3000E07010020E0E02020202020606080001A
:102DE30000FFFF10101010FC00000100101F1F1047
:102DF300101010101018060020E0E02020202020E2
:102E03006060800000FFFF10101010FC0000010044
:102E1300101F1F101000000000000000000080C001
:102E2300602020204080000000FCFF0100004040A3
:102E3300C0C340400001070E181010100F0F000010
:102E430020E0E0200000000020E0E02000FFFF1071
:102E53001010101010FFFF00101F1F1000000000C3
:102E6300101F1F100000202020E0E0202020000081
:102E73000000000000FFFF00000000000000101031
:102E8300101F1F1010100000000000202020E0E0A1
:102E930020202000000000000000FFFF00000000D1
:102EA3000060E08080C07F3F0000000020E0E02061
:102EB3000000A0E06020000000FFFF300C3AE1803A
:102EC30000000000101F1F10000000131E18100048
:102ED30020E0E020200000000000000000FFFF00D1
:102EE3000000000000000000101F1F101010101041
:102EF3001018060020E0E000000000C0E0E0200021
:102F030000FF0FFFE0807C03FFFF0000101F100095
:102F13000F0700101F1F10000020E0E080000020BA
:102F230020E020200000FF01071E78C000FF000002
:102F330010101F10100000030F1F0000000080C0BE
:102F430060202060C080000000FEFF010000000040
:102F530000FFFE000001070E181010180C070100F7
:102F630020E0E0202020202040C0800000FFFF2040
:102F730020202030101F0F00101F1F101000000012
:102F830000000000000080C060202060C0800000BE
:102F930000FEFF010000000000FFFE000001070E1D
:102FA3001911173C6C67210020E0E020202020202D
:102FB30060C0800000FFFF10101070D0080F0700E2
:102FC300101F1F1000000001071E18100080C060B2
:102FD3002020202040E0000000070F1C183830702C
:102FE300E0E1800000070C0810101010180F070014
:102FF3008060202020E0E02020206080010000008D
:1030030000FFFF000000000100000010101F1F1050
:10301300100000000020E0E02000000020E020007D
:103023000000FFFF0000000000FF00000000070F8A
:1030330018101010080700002060E02000000000B6
:10304300A06020000000077EE000807807000000F9
:1030530000000000071E03000000000020E0200025
:103063002060E0200020E0200003FFC0C03C3FF0D0
:10307300807C03000000001F0300001F0700000006
:10308300002060E020000020E0202000000000017C
:10309300877CE88601000000001018160100001369
:1030A3001E1810002060E0200000000020A0602017
:1030B3000000010F3CF8E0180601000000000010BA
:1030C300101F1F10100000000080E060202020204F
:1030D300A0E020000001000080601806030000004B
:1030E30000101C171110101010180600000000002B
:1030F30000FC0404040400000000000000FF0000C2
:103103000000000000000000007F4040404000003D
:10311300000030C0000000000000000000000000BC
:103123000718E0800000000000000000000000031A
:103133000C708000000004040404FC000000000084
:10314300000000000000FF000000000000004040FD
:1031530040407F0000000000000000080402020459
:103163000800000000000000000000000000000054
:10317300000000000000000000000000000000004C
:10318300000000000000000000000000000000003C
:10319300000000008080808080808080808080802C
:1031A3000000000404080800000000000000000004
:1031B300000000000000000000000000000000000C
:1031C30000000000000000000000000000000000FC
:1031D3000000989884444444FCF80000000F1F1931
:1031E300101010080F1F10180020E0F0000000005E
:1031F300000000000000FFFF180804040CF8F000B2
:1032030000001F0F08101010180F0300000000002B
:10321300000000000000000000E0F8180404043C73
:103223003800000000030F0C1010101008060000F7
:103233000000000000002020E0F0000000E0F81C87
:1032430004040408FFFF000000030F181010100807
:103253001F0F080000000000000000000000000035
:103263000000E0F8888484848CF8E0000000030FF9
:103273000C101010100804000000000080C0602033
:1032830020E0C00000040404FFFF04040400000065
:10329300000010101F1F101010000000000000009D
:1032A3000000000000000000000070F88C040CFC1B
:1032B300F40C0C0000707ECF85858DCD78780000EE
:1032C3000020E0F000000000000000000000FFFF0D
:1032D30008040404FCF8000000101F1F1000001075
:1032E3001F1F1000000000000060600000000000CD
:1032F3000000040404FCFE000000000000001010A5
:10330300101F1F101010000000000000000060607C
:103313006000000000000000040404FCFE00000044
:103323000000C0C08080C07F3F0000000020E0F0AC
:1033330000000000000000000000FFFF8040E01CD0
:103343000404000000101F1F100000131E181000BB
:103353000000202020E0F00000000000000000003A
:1033630000FFFF000000000000001010101F1F10DE
:10337300101000000000000000000000000000002A
:1033830004FCFC0804FCF80804FCFC00101F1F10DC
:10339300101F1F10101F1F1000000000000000006E
:1033A300000000000004FCFC08040404FCF8000016
:1033B30000101F1F100000101F1F1000000000004E
:1033C300000000000000000000E0F0180C04040CF2
:1033D30018F0E00000030F0C101010100C0F030086
:1033E3000000000000000000000000000004FCFCDE
:1033F300080404040CF8F0000080FFFF889010100C
:103403001C0F03000000000000000000000000008B
:1034130000E0F81C04040408F8FC000000030F1883
:1034230010109088FFFF80000000000000000000E3
:1034330000000000040404FCFC100804041C180031
:103443001010101F1F1010100000000000000000DB
:10345300000000000000000000003878CCC4848421
:103463000C3C000000001E18101011191F0F000063
:103473000000000000C0000000000000000404047D
:10348300FFFF040404000000000000000F1F1010E1
:10349300100C00000000000000000000000000000D
:1034A3000004FCFE00000004FCFE000000000F1FEF
:1034B300181010081F0F0800000000000000000093
:1034C3000000000000040C7CC4000080740C0400A5
:1034D30000000000031F0C030000000000000000B8
:1034E3000000000000000000041CF48004ECFC84D5
:1034F30000E41C040000011F0F00000F0F00000078
:103503000000000000000000000000000000040CA8
:103513003CE4C0241C0404000010101C120101131D
:103523001C18100000000000000000000000000054
:103533000004043CC40000C43C0404000000C08038
:10354300817F0E0100000000000000000000000069
:103553000000000000003C0404C4741C0C000000C4
:103563000000181E13111010180E000000000000B8
:10357300000000F80404000000000000001028C749
:1035830000000000000000000000003F4040000079
:10359300000000000000FF00000000000000000029
:1035A3000000FF0000000000000000000000FF001A
:1035B3000000000000000404F80000000000000008
:1035C30000000000C7281000000000000000404079
:1035D3003F00000000000000000C02020204081873
:1035E30010100C00000000000000000000000000AC
:1035F30000000000000000000000000000000000C8
:1036030000000000000000000000000000000000B7
:1036130000000000000000000000000000000000A7
:103623000000000000000000000000000000000097
:103633000000000000000000000000000000000087
:103643000000C0C0C0C0C0000000000000000000B7
:1036530000000FFFFFFF1F0000000000000000003C
:103663000000001F1F1F00000000000000000000FA
:103673000000060F0F0F060000000000000000808E
:10368300E0F87C3C9CE0F87C3C1C00000000030359
:10369300010000030301000000000000000000001F
:1036A3000000000000000000000000000000000017
:1036B3000000000000000000000000000000000007
:1036C30000C0C00000000000C0C00000003838384F
:1036D300F8FF3F38383838F8FF3F3838007070F05B
:1036E300FFFF70707070F0FFFF7070700000000FCC
:1036F3000F00000000000F0F00000000000000009A
:103703008080C0F0F040C080800000000000001EF8
:103713007FFFF0FFFF000C0F0F0F00000000C0C081
:10372300C0C001FFFF071FFEFCF0000000000307FD
:10373300070C087F7F0C0E07030100000080C0C048
:10374300C0C08000000000C0C00000007EFFFF007A
:1037530000FFFF7EE0FC1F030000000000010303E5
:1037630083E37D1FFBFEFF0303FFFEF80000000C55
:103773000F03000001070F0C0C0F0701000000806E
:10378300C0C040C0C00000000000000000007FFF78
:10379300FFC0E07F3F0F000000000000F8FCFF03C4
:1037A3000F3F7EF8E081F17F0F0101000103070E57
:1037B3000C08080D07070F0E0C0E070300001C1C56
:1037C300FCFC78000000000000000000000203037E
:1037D30001000000000000000000000000000000E5
:1037E30000000000000000000000000000000000D6
:1037F30000000000000000000000000000000000C6
:10380300000000000000C0E070380C04000000005D
:10381300000000F0FCFF0F010000000000000000AA
:103823000000001F7FFFE000000000000000000018
:10383300000000000001070F1C38604000040C3832
:1038430070E0C00000000000000000000000000065
:1038530000010FFFFCF0000000000000000000006A
:103863000000E0FFFF1F0000000000000040603880
:103873001C0F070100000000000000000000000012
:1038830000000000000000000000000000001838E5
:10389300387060C6FFFFCF60703838180000181CFE
:1038A3001C0E06F3FFFFE3060E1C1C1800000000AD
:1038B3000000000000000000000000000000000005
:1038C30000000000000000000000000000000000F5
:1038D30000000000FEFE00000000000000000101E7
:1038E30001010101FFFF01010101010100000000CD
:1038F30000000000000000000000000000000000C5
:1039030000000000000000000000000000000000B4
:1039130000000000000000000000000000000000A4
:103923000000000000000000000000000080C7C786
:103933007F3F1E00000000000000000000000000A8
:103943000000000000000000000000000000000074
:103953000000000000000000000000000001010161
:103963000101010101010101010101010000000048
:103973000000000000000000000000000000000044
:103983000000000000000000000000000000000034
:103993000000000000000000000000000000000024
:1039A3000000000000000000000000000000060FFF
:1039B3000F0F0600000000000000000000000000E0
:1039C3000000000000000000C0F0781800000000B4
:1039D30000000000C0F07C1F070100000000000091
:1039E300C0F07C1F070100000000000000303C1FF6
:1039F30007010000000000000000000000000000BC
:103A03000080C0C04040C080000000000000F0FE05
:103A1300FF0F010000000107FFFEF00000003FFF61
:103A2300FFC0000000000080FFFF3F000000000116
:103A330003070E0C08080E07030100000000000036
:103A430000000080C0C00000000000000000000172
:103A5300010101FFFFFF0000000000000000000063
:103A6300000000FFFFFF000000000000000000084E
:103A730008080C0F0F0F0C080808000000000000D6
:103A830080C040404040C0C08080000000001E1F36
:103A930019000000000000C1FFFF3E00000000000D
:103AA30080C070381C0E070301C0C00000000E0F59
:103AB3000D0C0C0C0C0C0C0C0E0F03000000008002
:103AC30080C0404040C0C0800000000000000F0FD5
:103AD3000F0000000080C1FF7F3E00000000C0C057
:103AE300C000010101030306FEFCF0000000030710
:103AF300070C080808080C06070300000000000074
:103B03000000000000C0C0C0000000000000000072
:103B130080E0701C0FFFFFFF0000000000303C2E10
:103B23002721202020FFFFFF20202000000000008D
:103B330000000808080F0F0F080808000000000025
:103B4300C0C0C0C0C0C0C0C0C0C0C000000000FF33
:103B5300FF80C0404040C0C0800000000000C0C3E0
:103B6300C301000000000001FFFFFC000000030789
:103B7300040C080808080C070703000000000000F5
:103B8300008080C0404040C0808000000000E0FC16
:103B9300FF87C1C04040C0C38303000000007FFF14
:103BA300FF83000000000001FFFFFC000000000194
:103BB30007070E0C08080C0E07030000000000C0E6
:103BC300C0C0C0C0C0C0C0C0C0C0C00000000E0F95
:103BD3000300000000E0F81E0701000000000000E1
:103BE3000000C0FCFF030000000000000000000014
:103BF30000000F0F0F000000000000000000000095
:103C030080C0C0404040C0C08000000000003E7F34
:103C1300FFF1C0C0800080C17F7F1E0000F0FCFE6A
:103C23000E03010103070F1EFEFCF0000001030752
:103C3300060C080808080C060703010000000080B2
:103C430080C040404040C0800000000000FCFFFFF7
:103C53000300000000000003FFFEF800000103075B
:103C63000F0C0808080C06E7FF7F1F00000007077A
:103C73000F0808080C0E07030100000000000000F5
:103C83000000000000000000000000000000000031
:103C93000000C0E0E0E0C000000000000000000001
:103CA300000000010101000000000000000000000E
:103CB3000000060F0F0F06000000000000000000C8
:103CC30000000000000000000000000000000000F1
:103CD3000000C0C0C0C000000000000000000000E1
:103CE30000000101010100000000000000000000CD
:103CF30000006E7E7E1E0000000000000000000039
:103D0300000000000000000080C040000000000030
:103D130080C06030180C060301000000000000039F
:103D2300070C183060C08000000000000000000095
:103D33000000000000000103060C08000000000062
:103D43000000000000000000000000000020202010
:103D530020202020202020202020202000080808C8
:103D630008080808080808080808080800000000F0
:103D7300000000000000000000000000000040C040
:103D830080000000000000000000000000000000B0
:103D93000103060C183060C0800000000000000022
:103DA300000080C06030180C070300000000080CFE
:103DB30006030100000000000000000000000000F6
:103DC3008080C040404040C08080000000003C3FF5
:103DD3003F39000000000080C1FF7F3E000000006B
:103DE300000000003E3F030101000000000000004E
:103DF3000000060F0F0F0600000000000000000087
:103E03000080C0C0404040C08000000000E0FCFED5
:103E13000F83E1F87C0CFCFC3D07FEF8001FFFFF5D
:103E2300C03F7F7F603C7F7F60389F870000000337
:103E330007060C080808080C06070300000000002A
:103E43000000C0C0C0C0000000000000000000006F
:103E5300C0FC7F033FFFFC8000000000000080FCEB
:103E63007F0F0808080B7FFFF8800000080C0F0F76
:103E7300080800000000080F0F0F0C08004040C0A6
:103E8300C0C040404040C0C080800000000000FF30
:103E9300FFFF0000000080C1FF7F3E00000000FF25
:103EA300FFFF01010101010306FEFCF00008080FFA
:103EB3000F0F08080808080C0E0703010000000094
:103EC3000080C0C0404040C08080800000E0FCFE15
:103ED3001F0300000000000001030F0E003FFFFF5F
:103EE300C0000000000000000000C0C0000000038C
:103EF30007060C080808080C06030100004040C030
:103F0300C0C0404040C0C08080000000000000FFEF
:103F1300FFFF0000000000010FFFFCF0000000FFA6
:103F2300FFFF000000000000C0FFFF1F0008080F94
:103F33000F0F0808080C0C0703030000004040C0E3
:103F4300C0C0404040404040C0C0C000000000FF2F
:103F5300FFFF0000000080E0E0010706000000FF13
:103F6300FFFF01010101030F0F0080800008080F0C
:103F73000F0F0808080808080C0E0F01004040C086
:103F8300C0C04040404040C0C0C0C000000000FF6F
:103F9300FFFF0000000080E0E0010706000000FFD3
:103FA300FFFF01010101031F1F0000000008080FAC
:103FB3000F0F0808000000000000000000000000D0
:103FC3008080C0404040C0808000000000E0FCFED4
:103FD3000F030000000000030F0E0000001FFFFF8F
:103FE300C0000000000404FCFCFC04040000000307
:103FF300070E0C0808080C07030300004040C0C06C
:10400300C040400000004040C0C0C0400000FFFF6F
:10401300FF00000000000000FFFFFF000000FFFFA3
:10402300FF01010101010101FFFFFF0008080F0F5C
:104033000F080800000008080F0F0F0800000040D9
:10404300404040C0C0C0404040400000000000006D
:10405300000000FFFFFF0000000000000000000060
:10406300000000FFFFFF0000000000000000000848
:104073000808080F0F0F08080808000000000000D8
:104083000040404040C0C0C04040404000000000ED
:104093000000000000FFFFFF000000000000000020
:1040A3000000000000FFFFFF000000000070F0F0C0
:1040B300F08080C0E07F3F1F00000000004040C050
:1040C300C0C040400040C0C0C0404000000000FFEE
:1040D300FFFF80E0F81E070300000000000000FF60
:1040E300FFFF03030F3FFCF0C00000000008080FB0
:1040F3000F0F08080000090F0F0E0808004040C00A
:10410300C0C040400000000000000000000000FFAD
:10411300FFFF00000000000000000000000000FF9F
:10412300FFFF000000000000000080800008080F6F
:104133000F0F0808080808080C0E0F014040C0C004
:10414300C080000000000080C0C0C0400000FFFF2E
:10415300FFFFF0000080F87FFFFFFF000000FFFF7C
:10416300011FFFFEF0FF0F00FFFFFF0008080F0F06
:104173000800030F0F0008080F0F0F084040C0C0CE
:10418300C08000000000004040C0C0400000FFFFAE
:10419300071F7EF8E080000000FFFF000000FFFF24
:1041A30000000001071F7EF8E0FFFF0008080F0F63
:1041B3000808000000000001070F0F0000000000C6
:1041C3008080C0404040C0808000000000F0FCFFC1
:1041D3000F010000000000010FFFFCE0001FFFFFC4
:1041E300C000000000000000C0FFFF3F000000030C
:1041F30007060C0808080C0607030000004040C02F
:10420300C0C04040404040C0C0800000000000FFEC
:10421300FFFF00000000000081FFFF7E000000FFA1
:10422300FFFF020202020203010100000008080F5F
:104233000F0F08080000000000000000000000004D
:104243008080C0404040C0808000000000F0FCFF40
:104253000F010000000000010FFFFCF0003FFFFF13
:1042630080C04040C0C0800080FFFF3F00000103CA
:1042730007070C08080F3F7F77637110004040C0A9
:10428300C0C040404040C0C080800000000000FF2C
:10429300FFFF0000000080C1FF7F3E00000000FF21
:1042A300FFFF0101073FFFF9C00000000008080FEE
:1042B3000F0F08080000010F0F0E08080000008010
:1042C300C0C0404040C0C080C0C00000003E7FFF6F
:1042D300E1C0C080800000030F0F000000E0E08019
:1042E300000101030307071EFEFCF00000000F0F8F
:1042F300060C080808080C0E070301000000C0C0E4
:10430300C04040C0C0C0404040C0C00000060701DC
:10431300000000FFFFFF000000010707000000008E
:10432300000000FFFFFF000000000000000000008D
:104333000008080F0F0F0808000000004040C0C02D
:10434300C040400000004040C0C040400000FFFFAC
:10435300FF00000000000000FFFF00000000FFFF5F
:10436300FF00000000000000FFFF00000000010745
:10437300070E0C0808080C0603010000004040C0AB
:10438300C0C0400000000040C0C0C04000000007A3
:10439300FFFFF800000080F87F0700000000000026
:1043A300000FFFFFF0F87F0700000000000000008F
:1043B3000000000F0F0300000000000040C0C0C059
:1043C300400040C0C0C0400040C0C0C00001FFFF6B
:1043D300F80000F3FFFFF800C0FF3F000000003FBC
:1043E300FFFCFE1F01FFFFFCFF0F000000000000A9
:1043F3000F0F030000000F0F01000000004040C03A
:10440300C0C0400000004040C0C040400000000168
:10441300071F7EF8E0F03C0F0300000000000000DF
:1044230080E0781F0F7FFCF0C00000000008080E3A
:104433000F0B08000000090F0F0E0C080040C0C04E
:10444300C0C0404000004040C0C0404000000003E6
:104453001F7FFCE08080F07E0F0100000000000061
:10446300000003FFFFFF0100000000000000000048
:104473000008080F0F0F080800000000000000C02C
:10448300C0C0C04040404040C0C0C040000006071C
:1044930003010000C0F0F83E0F0701000000008098
:1044A300C0F07C3F0F0300000000808000080E0F67
:1044B3000F0908080808080C0C0F0F010000000082
:1044C3000000F8F8F80808080808080000000000D1
:1044D3000000FFFFFF0000000000000000000000DC
:1044E3000000FFFFFF0000000000000000000000CC
:1044F30000003F3F3F2020202020200000000060DC
:10450300E0E00000000000000000000000000000E8
:10451300010F3FFCE08000000000000000000000ED
:1045230000000001073FFCF0C00000000000000095
:1045330000000000000001073F7E784000000808EB
:1045430008080808F8F8F800000000000000000060
:1045530000000000FFFFFF0000000000000000005B
:1045630000000000FFFFFF0000000000000020200B
:10457300202020203F3F3F000000000000000000FB
:1045830020301C1C0C0C1C38200000000000000014
:104593000000000000000000000000000000000018
:1045A3000000000000000000000000000000000008
:1045B30000000000000000000000000000000000F8
:1045C30000000000000000000000000000000000E8
:1045D30000000000000000000000000000000000D8
:1045E30000000000000000000000000080808080C8
:1045F30080808080808080808080808000000004B4
:1046030004040C0C1810000000000000000000005F
:104613000000000000000000000000000000000097
:104623000000000000000000000000000000000087
:104633000000000000000000000000000000000077
:10464300000000000000000000000000000080C027
:10465300C0602020202060E0C080000000C0E3F3A1
:104663003318180808080CFFFFFF00000003070FAA
:104673000C080808080C04070F0F080E004040C080
:10468300E0E000000000000000000000000000FF68
:10469300FFFFC060202060E0C0C00000000000FFFA
:1046A300FFFF010000000000FFFFFF000000000FFC
:1046B3000F070E0808080C0E070300000000000097
:1046C30000000000000000000000000000000000E7
:1046D300C0C0E060202020E0C08000000000FEFF9A
:1046E300FF010000000000030383800000000003BB
:1046F30007070C080808080C060301000000000067
:1047030000000000004040C0E0E000000000008026
:10471300C0E06020202060FFFFFF00000000FEFFDC
:10472300FF010000000000FFFFFF00000000000386
:10473300070E0C08080C060F0F0704040000000006
:104743000000000000000000000000000000000066
:10475300C0C06020202060C0C08000000000FEFFB9
:10476300FF111010101010101F1F1E000000000377
:1047730007070C0C0808080C0607010000000000DE
:104783000000008080C0404040C0C0800000202066
:104793002020FEFFFF202020202303030000000031
:1047A3000000FFFFFF000000000000000000000801
:1047B30008080F0F0F080808080000000000000099
:1047C30000000000000000000000000000000000E6
:1047D300C0C06020202060E0E0E06060000000C70F
:1047E300FFFF30202020303F1F0F00000000387DE6
:1047F3007FC78383838383C67E7E3C00004040C0A3
:10480300E0E000000000000000000000000000FFE6
:10481300FFFFC060202060E0C0800000000000FFB8
:10482300FFFF0000000000FFFFFF00000008080F6B
:104833000F0F08080008080F0F0F080800000000FA
:10484300000080C0C0C08000000000000000002005
:10485300202020E1F1F10000000000000000000032
:10486300000000FFFFFF0000000000000000000840
:104873000808080F0F0F08080808000000000000D0
:10488300000000000080C0C0C0C0000000000000A5
:10489300000020202020E1F1F100000000000000D2
:1048A300000000000000FFFFFF00000000000060A8
:1048B300E0E0808080E07F3F1F000000004040C0B8
:1048C300E0E000000000000000000000000000FF26
:1048D300FFFF00000020E0E060202000000000FF58
:1048E300FFFF381C3E7FF1C0800000000008080F66
:1048F3000F0F08080000090F0F0E0C0800000040FE
:10490300404040C0E0E00000000000000000000064
:10491300000000FFFFFF0000000000000000000097
:10492300000000FFFFFF000000000000000000087F
:104933000808080F0F0F080808080000000000000F
:1049430000000000000000000000000020E0F0F084
:10495300602020E0E0C0602020E0E0C000FFFFFF17
:10496300000000FFFFFF000000FFFFFF080F0F0F15
:104973000800080F0F0F0800080F0F0F00000000BA
:10498300000000000000000000000000004040C0E4
:10499300E0E0C060202060E0C0800000000000FF75
:1049A300FFFF0000000000FFFFFF00000008080FEA
:1049B3000F0F08080008080F0F0F08080000000079
:1049C30000000000000000000000000000000000E4
:1049D300C0C06020202060C0C08000000000FCFF39
:1049E300FF01000000000001FFFFFE0000000003C4
:1049F30007070C0808080C07070300000000000065
:104A0300000000000000000000000000004040C063
:104A1300E0E0C060202060E0C0800000000000FFF4
:104A2300FFFF000000000000FFFFFE00008080FF8A
:104A3300FFFF868C08080C0F07030000000000002E
:104A430000000000000000000000000000000080E3
:104A5300C0C060202060E0C0E0E000000000FEFF76
:104A6300FF010000000000FFFFFF00000000000343
:104A7300070E0C08088C86FFFFFF808000000000F3
:104A83000000000000000000000000000040404063
:104A930040E0E0E080C0406020E0E0C000000000B3
:104AA30000FFFFFF030100000000000000080808EA
:104AB300080F0F0F0808080800000000000000009E
:104AC30000000000000000000000000000000000E3
:104AD30080C0E06020202060C0E0E0000000008093
:104AE300870F0F1C18383870F0E3C3000000000F65
:104AF3000F060C080808080C0F070300000000004D
:104B03000000000000000000000000000000202062
:104B13002030F8FFFF2020202020000000000000AC
:104B23000000FFFFFF000000000000000000000085
:104B3300000003070F0C08080C0703000000000027
:104B4300000000000000000000000000002020E042
:104B5300F0F00000002020E0F0F00000000000FF73
:104B6300FFFF0000000000FFFFFF00000000000344
:104B7300070F0C08080C060F0F07040400000000C1
:104B8300000000000000000000000000002020E002
:104B9300E0E0200000002020E0E0602000000001B1
:104BA300073FFEF0C0C0F83F07010000000000000F
:104BB3000000010F0F0701000000000000000000CB
:104BC3000000000000000000000000002060E0E0A2
:104BD300202020E0E0E0200020E0E0600000077FEC
:104BE300FFF0F0FF1FFFFCC0FC3F030000000000CC
:104BF300070F0F0000010F0F03000000000000006B
:104C03000000000000000000000000000000202061
:104C1300E0E0E0A0002020E0E02020000000000011
:104C23000081C77F3EFEE7C1000000000008080CBA
:104C33000E0F09000008090F0F0E080800000000FE
:104C4300000000000000000000000000002020E041
:104C5300E0E02000000020E0E060202000000000F1
:104C6300031F7EF8C0E0FC1F030000000000C0C06B
:104C7300C0C0E07F1F030000000000000000000030
:104C83000000000000000000000000000000E0E061
:104C9300E02020202020E0E0E0600000000003038B
:104CA30080C0F0F83E1F07030080800000000C0E58
:104CB3000F0B09080808080C0E0F03000000000082
:104CC300000000000000F0F80C04040000000000E5
:104CD300000000008080FF7F000000000000000053
:104CE300000000010103FEFC0000000000000000C2
:104CF3000000000000001F3F604040000000000073
:104D030000000000FFFF00000000000000000000A2
:104D130000000000FFFF0000000000000000000092
:104D230000000000FFFF0000000000000000000082
:104D330000000000FFFF000000000000000000046E
:104D4300040CF8F000000000000000000000000068
:104D530000007FFF808000000000000000000000D2
:104D63000000FCFE03010100000000000000004001
:104D730040603F1F000000000000000000181C06F8
:104D83000202060E3C3860604060381800000000E4
:104D93000000000000000000000000000000000010
:104DA3000000000000000000000000000000000000
:104DB30000000000000000000000000000000020D0
:104DC30000000020000000FC000000280000000894
:104DD300000000FC000000A8000000BC000000E888
:104DE3000000000800000008000000070000007F2A
:104DF30000000089000000480000002B0000001E96
:104E03000000002A0000004B000000485345454BBA
:104E130046524545205072696E746620546573741A
:034E23000D0A0075
:00000001FF
